:020000040800F2
:100000000000082401EC000855EC000855EC00083D
:1000100055EC000855EC000855EC00080000000005
:1000200000000000000000000000000055EC000887
:1000300055EC00080000000055EC0008E9D9000864
:1000400055EC000855EC000855EC000855EC00088C
:1000500055EC000855EC000805DB00080DDB000836
:1000600015DB00081DDB000825DB0008A13C0008AB
:10007000AD3C000855EC0008B93C0008C53C000840
:1000800055EC000855EC000855EC000855EC00084C
:1000900055EC000855EC000855EC00082DDB000875
:1000A00055EC0008B5D1000855EC0008C9D100088E
:1000B000DDD10008F1D1000805D20008314D00085B
:1000C0003D4D0008494D0008554D000855EC00080D
:1000D00055EC000895E70008ADE70008C9E70008FF
:1000E00055DB000855EC0008000000008DD2000828
:1000F00055D20008A1D2000879D2000855EC0008BA
:1001000055EC000855EC000819D2000855EC000821
:10011000E5E70008FDE700082DD2000841D20008FD
:1001200055EC000855EC000855EC000855EC0008AB
:1001300055EC000855EC000855EC000855EC00089B
:1001400000000000000000000000000000000000AF
:1001500055EC000855EC000855EC000815E80008BF
:10016000614D00086D4D000855EC000855EC000885
:1001700055EC000855EC000855EC000855EC00085B
:1001800055EC000855EC000845E800085DE800085B
:1001900055EC000855EC000855EC000855EC00083B
:1001A00055EC000855EC000855EC000855EC00082B
:1001B00055EC000855EC000855EC0008794D000896
:1001C000954D000855EC000855EC000855EC00086A
:1001D00055EC000855EC000855EC000855EC0008FB
:1001E00055EC000855EC000855EC000855EC0008EB
:1001F00055EC000855EC000855EC000855EC0008DB
:1002000055EC000855EC000855EC000855EC0008CA
:10021000B5D20008C9D20008DDD2000855EC0008AC
:1002200055EC000855EC000855EC000800000000F3
:1002300055EC000855EC00080000000055EC0008E3
:1002400055EC000855EC000855EC000855EC00088A
:1002500055EC000855EC000855EC000855EC00087A
:1002600055EC000855EC000855EC000855EC00086A
:1002700055EC000855EC00082DE8000800000000CF
:1002800055EC000855EC000855EC00080000000093
:080290000000000055EC00081D
:1002980010B5054C237833B9044B13B10448AFF3B8
:1002A80000800123237010BD90010024000000008D
:1002B800DC0E010808B5034B1BB103490348AFF333
:1002C800008008BD0000000094010024DC0E010835
:1002D8002DE9F843DB49DC4CD1ED007A94ED005A66
:1002E800DA4DDB4B35EE675ADA4CD5ED005A054648
:1002F8009FEDD93AD948E5EE037A94ED007A90ED6E
:10030800005ADFEDD74A35EE475ADFEDD66AD64AAE
:100318009FEDD66AA5EE267AD5489FEDD64ADFED41
:10032800D63A9FEDD65A2DED0A8B93ED008A27EE2B
:10033800066AC1ED007AB0EE67CA75EEC85AD049B0
:10034800D2ED00BAF0EE40AAD0ED007AA5EEA48A6C
:10035800D1ED005ACB4875EEEB5ACB4984ED007AC3
:1003680091ED00AAE5EEA3BA83ED008AC6EE045A21
:10037800C64B90ED006A93ED009AC54877EEC97AAE
:10038800C2ED00BA90ED007A36EE4A6AC14AA7EE8D
:10039800A49AC148D2ED009AA6EE26AAD0ED007A1A
:1003A80037EE697A83ED009AE7EE269ABB4BF5EEB5
:1003B800C05A81ED00AAD3ED008A77EEE87AF1EE13
:1003C80010FAC2ED009AE7EE858AC3ED008A00F1C3
:1003D8003681B7EE00BAF4EECB5AF1EE10FAD8BF78
:1003E800B0EE65BAAE4AB7EE007A9FEDA26AD2EDDA
:1003F800005AAC4BC5EE867A9FED9C0AD3ED006A95
:10040800A94AAA4FAA4E87ED01BA726077EEA67A7A
:10041800F4EEC77AF1EE10FAA8BF77EEC77A27EEA6
:10042800800AC3ED007A0FF0BDF9DFED927AF7EE9E
:10043800004A6CEE277AF4EEE47AF1EE10FA08D46A
:10044800DFED9C4AF4EEE47AF1EE10FAD8BFF0EE54
:10045800674A994BF6EE087ADFF8A882B7EE006A89
:100468001B684BF67F3ED8F80090002B9349DFEDD0
:10047800945A14BFB0EE673AB0EE463A07EE909A37
:100488009FED7C7A01F1280CB8EEE74ADFED8D3A52
:100498008D48F0EE447AF1EC016AE6EEE47AF5EE86
:1004A800C07AF1EE10FA0DD577EE877AF5EEC07ABC
:1004B800F1EE10FAF8D4F4EEC77AF1EE10FA06DB92
:1004C80077EEC77AF4EEC77AF1EE10FAF8DAFDEEB5
:1004D800E76A16EE903A5A1C724500F39F8000EBCB
:1004E8008304F8EEE66A00EB820294ED006A92ED6E
:1004F800005A77EEE67A8C4575EE466AA7EEA66A4C
:10050800E6EE235AC5D1F5EE007ADFED706AB7EE54
:10051800005A9FED6F7A23EE256A6E4B69EE275AD3
:10052800F6EE084AF0EE457AEBEEA46AE5EE807A3C
:1005380067EEA67AF0EE466AF4EEC77AF1EE10FAA4
:10054800D8BFB0EE677AD3ED007AE7EE467AE7EEE9
:10055800876AC3ED006A604BD3ED006AE7EEC76AAD
:10056800E6EE877AC3ED007A5C4B1B68002B61D1FD
:1005780035EE485A28EE267A594ADFED5A7ADFEDE9
:100588005A5AA6EE057A92ED006AD7ED006A3AEE5D
:10059800866A564B1B6867EE277AE6EE257A77EE71
:1005A800E67AEBEE276AC7ED006A002B40F0AE80D2
:1005B800D6ED007A00EB89004D4B37EE676AC0ED47
:1005C800006A1B68DFED4B6AE6EE267A7BB377EEAE
:1005D800675A9FED496AF0EE476AE5EE866A68EE6B
:1005E8008A8AC6ED007AF7EE007A09F101034BF624
:1005F8007F3166EEA96A27EE287A77EEE87A8B4291
:10060800C8BF0023C2ED006AC8F80030AAEEA77A76
:10061800BDEC0A8B85ED007ABDE8F88300EB830218
:10062800F8EEE66A90ED005A92ED006A61E7F0EEA6
:10063800676AD4E79FED315A9FED318A9AE79FEDBB
:1006480020BACFE6540000245000002448000024BB
:100658004C0000243C0000240AD7233B3800002427
:10066800A69B443B6F12833B44000024DB0FC94028
:100678003000002400803B476F12033B0AD7A33C9D
:1006880040000024280000242C000024340000240A
:10069800200000242400002400000024040000247A
:1006A8001C000024C0010024378DA73E140000243C
:1006B8000C000024007C3B47E001002404110108E1
:1006C80000000000CDCCCC3DF0780124CDCC4C3ED0
:1006D80048E17A3FB4010024B0010024BC010024A1
:1006E800AC0100249A99993E3333333FDC0100244E
:1006F800D8010024378DA73E8FC2F53DD0CC4C3DA4
:100708003333733FEC7801246F12033BF7EE005A42
:100718005FED037A344F45F6BF5E9FED345AE0EE45
:10072800275AD7ED007ADFF8DCC09FED316ADCF894
:10073800003030495C1CE5EE857A01EB8303744593
:10074800C8BF0024C3ED006ACCF80040F4EEC67AB6
:10075800C7ED007AF1EE10FA40DAF5EEC07AF1EE64
:1007680010FA14D577EE867AF5EEC07AF1EE10FA23
:10077800F8D49FED1F6AF4EEC67AF1EE10FA06DBA4
:1007880077EEC67AF4EEC67AF1EE10FAF8DABDEE34
:10079800E76A45F6BF57DFED183A9FED184A16EE9F
:1007A800103AF8EEC65A9FED166A5C1C77EEE57AA9
:1007B800BC42A9EE236AD4BF01EB84040D4C01EBC3
:1007C8008301D4ED004A91ED005A74EEC55AA7EEA4
:1007D800A55A66EE057AE7EE846AE9E677EEC67A08
:1007E800C7ED007AC5E700BFE4010024B072803F7E
:1007F8000080BB46EC0100248FC2F53DAE47613E48
:10080800CDCCCC3DE80100242DE9F04F0021C048B3
:10081800DFF88883BF4FDFF888A32DED088B83B0FE
:1008280000F084FB03460121B948C8F8003000F005
:100838007DFBB94B02460221B5481A6000F076FBF1
:10084800B64B02460321B2481A6000F06FFB03461C
:100858000121AF483B6000F077FB05460021AC481A
:1008680000F072FB0446002D00F0A8809AF80030D2
:10087800002B40F0A380002840F03C818346DFF83D
:100888002493A74B1A7882F001021A70002A40F0CC
:10089800A1800021A34B9E481960002100F05CFB59
:1008A8000EF0F0FA3B6806460193002B40F09C805E
:1008B8009D4A012196481460224600F04DFBDFF85E
:1008C800E8B200229949019BCBF800200A60984AB7
:1008D8001660984A136000218D4800F00FFB012133
:1008E8008B48B0EE40AA00F009FB02218848B0EE20
:1008F80040BA00F003FB03218548B0EE409A00F0AF
:10090800FDFA04218248F0EE408A00F0F7FA05214A
:100918007F48F0EE409A00F0F1FADFED876ADFEDEC
:10092800877AF0EE40AA3B68EAEE267A9FED847A51
:10093800012B67EE877A00F0998068EEA88A814AD1
:10094800DFED815ADFED816AC2ED007AE8EEA56A33
:100958007F4A9FED806A82ED00BA9FED7F7A7F4AD9
:10096800A9EE867AD8F8003082ED009A7C4AC2ED6A
:10097800006A7C4AC2ED009A7B4A82ED007A7B4A83
:10098800C2ED00AA6BB39FED7A7AF5EE006ADFED4F
:10099800797A794B8AF80050A9EE267A89F80040CE
:1009A800B4EEE77AF1EE10FAD8BFF0EE477AC3ED6D
:1009B800007A03B0BDEC088BBDE8F08F584B1A786D
:1009C8005CB1DFF8E09199F8003083F0010B002A60
:1009D8003FF45FAF4FF07E515CE7A346DFF8C49168
:1009E80054E79FED667AD0E74F4B00221A60BBF1BF
:1009F800000F04D04F4A13681060002B5ED1DFF857
:100A0800A8B1DBED007AF5EEC07AF1EE10FA78DDE8
:100A1800474A1368002B4ED0F31A07EE103AF8EE47
:100A2800476A9FED577AB7EE006A404B012167EE9F
:100A3800877A1660364886EEA77AD3ED007A77EE85
:100A4800277A9FED507AF4EEC67AF1EE10FAA8BF35
:100A580077EEC67AF4EEC77AC3ED007AF1EE10FAB3
:100A68004CBF0A46002200F077FA34E79BED008A73
:100A7800B5EEC08AF1EE10FA7FF75FAFF6EE00BA76
:100A8800DFED410AB0EE480AA8EE6B0A0EF0CEFE82
:100A9800F0EE407AB0EE480ADFED3C0AA8EE2B0AE9
:100AA800B0EE678A0EF0EAFEF0EE487A30EE480AB9
:100AB800E0EE0A7A41E7DFED366AB2E7C31A9FED46
:100AC800357A07EE903AF8EE677AF4EEC77AF1EEE7
:100AD80010FA94DD9FED307AF4EEC77AF1EE10FA51
:100AE8008DD59FED177ADFF8C0B067EE877ACBED2A
:100AF800007A8DE7DFF8AC9099F8003083F0010BAD
:100B0800BFE600220121024800F026FAE3E600BF12
:100B180058000024D4010024DC010024D80100245A
:100B28000800002400000024BC010024C4010024A3
:100B3800CC010024D0010024000039440000704298
:100B48006F12833A5000002400A0BE450000C8433D
:100B5800480000249999993ECDCC4C3D4000002492
:100B680038000024300000241C0000242800002441
:100B780052B81E3FAE47613F20000024713D0A3F36
:100B880000007A44CDCCCC3D90C2753DCDCC4C3FD5
:100B9800000000000000164300009644E001002415
:100BA800B9010024B8010024C801002438B5302256
:100BB8004BF680311848002400F0A6F8174916486B
:100BC800012500F0E3F8164A002116480EF05EFCF5
:100BD800154A002115480EF059FC154A00214FF01E
:100BE8007E531460134A0C481460134A1160134A68
:100BF800134951602146134A1570134A1360134A6A
:100C080013602A4600F0A8F9224629460248BDE8A2
:100C1800384000F0A1B900BF58000024D9020008EC
:100C280000EE0200F078012400770100EC010024B6
:100C3800EC780124E8010024E40100240C000024DD
:100C4800378DA73E0800002400000024040000247B
:100C580008B5034800F0AAF8BDE80840FFF7D4BD7E
:100C68005800002410B40623094C0A480A490B4AC4
:100C7800237084F84130037080F841300B7081F89C
:100C88004130137082F841305DF8044B704700BF63
:100C98008C01003008010030840000300000003072
:100CA800184B2DE9F0471F6882B047B315463A6DD7
:100CB8002AB325B380460E4600244FF0000A00E010
:100CC8003A6DD8F8003001A8CDF804A04FEA84099D
:100CD80003EB8403013493ED000A9047D7ED127AB1
:100CE8009DED017AA5427368326867EE877A4B44B6
:100CF80002EB090CCCED007AC3F800A0E0D102B0F9
:100D0800BDE8F087F066042470B51E4B0646451D05
:100D180000F10B04ADF5A96D01608280186015F82B
:100D2800010F00210DF0BAFFAC42F8D106F10F0512
:100D380014F8010F02210DF0B1FFA542F8D1307C63
:100D480002210DF0ABFF707C02210DF0A7FFB07CF3
:100D580001210DF0A3FFF07C01210DF09FFF03237B
:100D680000226846084900F021F9B188064800F0D9
:100D78004BFA0548316800F027FA01200DF5A96DF6
:100D880070BD00BFF0660424D8670424016531B142
:100D98000449054808B500F013FA012008BD0846C3
:100DA800704700BFA90C0008D867042490F84430A5
:100DB8002DE9F04105462DED028BA3B190F84530A1
:100DC800052B56D90022B7EE008A90F84630002A43
:100DD800DFED480A18BFF0EE480A012B68D0022B55
:100DE80073D0C5ED120A0EF04DF805F10F0405F1A8
:100DF8005C06074605F1110814F8010F0EF006F815
:100E0800B0FA80F394F84A205B099A421BD0326802
:100E1800B5F85410BA1A8A4215D384F84A30F368E0
:100E28003760FB1AB8B9F76094F854200132D2B28F
:100E380084F85420B5F85810994204D3022A02D1F4
:100E4800012384F86230444506F10406D4D1BDEC90
:100E5800028BBDE8F081B5F856209A4205D894F87F
:100E68005430012B3ED0022B3FD0002384F854305D
:100E7800E9E70344B7EE008A98790DF0E9FE07EE3A
:100E8800900ADFED1D6AB7EE007AF8EE677A95F8FA
:100E98004630C7EEA60AF4EEC70AF1EE10FACCBF48
:100EA80001220022002A18BFF0EE480A012B96D131
:100EB800B2EE040A0EF010FCF2EE027A30EE480AA6
:100EC800C0EE270AC5ED120A8DE7F2EE027AB0EEFF
:100ED800480AA0EEA70A0EF0CFFBF0EE400AC5EDD7
:100EE800120A80E784F86030BFE7012384F8643091
:100EF800BBE700BF0000000000C07F44052902D9FD
:100F08009FED080A7047084408B580790DF0A0FEE7
:100F180007EE900A9FED047AF8EE677A87EE870A63
:100F280008BD00BF0000000000C07F44032901D9AC
:100F380000207047084408B5007B0DF067FFB0FA41
:100F480080F0400908BD00BF012903D8084490F883
:100F58005A00704700207047012900D9704708449B
:100F680082F00101807C0DF019BF00BF10B4062388
:100F7800094C0A480A490B4A237084F84130037027
:100F880080F841300B7081F84130137082F841309D
:100F98005DF8044B704700BF9C0300301803003015
:100FA8009402003010020030002070472DE9F04311
:100FB800052B0D4690461E46044634BF1E460326A2
:100FC8004FF0000901272DED028B9FB003F00CFFB5
:100FD800A5F8088002F098FA03F070F8734B202007
:100FE80002210B9303F100730E9603F54073CDF8BD
:100FF8002890CDF840900C934FF441730F971197B8
:10100800ADF834300DF04AFE20200DF0FFFE002828
:1010180040F087800823ADF8087003970DEB0309AB
:101028008DF80A00624A49460493CDE9127005AF6B
:10103800384602F0F7F8B5F90830052B03D101223C
:101048000023CDE91223002348460AA9CDE902333B
:1010580002F0AEFEB5F90830052B6FD0042B75D021
:101068003023069605932E1D4FF07E533946029A7B
:101078003046079301F0CEFE4FF4E06305F10A0015
:101088006B8105232B73FFF78FFF4A4B4FF40072D8
:101098004949C4F8803004F2F620C4F8A030C4F8F6
:1010A800C030C4F8E030C4F80031C4F82031C4F8C6
:1010B8004031C4F86031C4F88031C4F8A031C4F8B4
:1010C800C031C4F8E031C4F80032C4F82032C4F8A2
:1010D8004032C4F86032C4F8C432C823C4F8EC32D1
:1010E8000EF018FA304601F013FF3046B0EE408A91
:1010F80001F0FCFE034641462046D3ED007AF8EEA7
:10110800677AFCEEE77AF8EE677A88EE270A85EDCB
:10111800000A00F095FF20461FB0BDEC028BBDE829
:10112800F08340F60133ADF800300098CDE912970E
:101138000DF1080905AF01F05BFF7CE71C49384653
:1011480001F076FFB5F90830042B89D1012314A9E1
:1011580003A8189614931D93CDE919330023CDE9FC
:101168001B33ADF85C30154B159303F1012303F5E0
:101178007D03169302F01CFE302306960593B5F9FD
:101188000830042B7FF46FAF40F601632E1DADF8D5
:101198000430019801F02CFF4FF07C53394630465B
:1011A8000793DDE9022301F067FE65E70402040402
:1011B800F46604240820803AF40E010800010609A8
:1011C800043001F0EBBE00BF38B5051D04462DED17
:1011D800028B284601F0A0FE284601F099FE284619
:1011E800B0EE408A01F082FED0ED007AF8EE677A20
:1011F800FCEEE77AF8EE677A88EE277ABDEC028B88
:1012080084ED007A38BD00BF38B5051D04462DEDC4
:10121800028B284601F06EFE284601F079FE28462A
:10122800B0EE408A01F062FED0ED007AF8EE677AFF
:10123800FCEEE77AF8EE677A88EE277ABDEC028B47
:1012480084ED007A38BD00BF30B406230C4C0D483D
:1012580000250D490D4A237084F841300C4C037069
:1012680080F841300B7081F841300C21137082F8FE
:1012780041300B226560074830BC03F02BB800BF33
:10128800AC05003028050030A404003020040030EC
:10129800D8670424F4660424014803F089B800BF21
:1012A800F466042470B52DED028BB0EE408A044636
:1012B80084B0022502231B220121012602F0E4FE4C
:1012C800B0EE480A04F1100002231C22012102F0AA
:1012D800DBFEB0EE480A04F51C700D2319221A2112
:1012E8000095DFED1B8ACDE9015502F059F904F5A7
:1012F8002270122313221421009602F07BFA04F2C2
:101308008D20172318221121009602F073FA00236A
:10131800B0EE480A04F17000F0EE680A1A46C621D9
:1013280002F09EF80023F0EE680AC021B0EE480AE9
:1013380004F190001A4602F093F8C4F80855C4F86E
:10134800FC54C4F8005504B0BDEC028B70BD00BF5E
:101358006F12033B30B50225044600230B220C21F3
:1013680000F51C702DED028B85B0B0EE408ADFEDE4
:101378002E8A0095CDE9015502F012F904F5257081
:10138800B7EE000A00231422012102F07DFE04F5C5
:101398002970B7EE000A00231322012102F074FE1F
:1013A8000420F0EE680A0023B0EE480AC4F8F804F6
:1013B800C4F80805012204F17000C021C4F80455DE
:1013C80002F04EF8F0EE680AB0EE480A04F1900018
:1013D80000230122C12102F043F8F0EE680AB0EEC2
:1013E800480A04F1B00000230122C62102F038F8AF
:1013F800F0EE680AB0EE480A0023012204F1D0009A
:10140800C32102F02DF8012117200DF047FC01211E
:1014180017200DF043FC0121112005B0BDEC028B13
:10142800BDE830400DF03ABC6F12033BB0F90C2513
:101438000346022A2DE9F04F89B000F0D281032A31
:1014480002D009B0BDE8F08FD0F8D422B0F8F64247
:10145800B2F80100C0F30B002118C1F30B01A2F888
:10146800031040F6FE718C42B2F83D1088BF40F47C
:101478008050C1F30B01A2F80100B3F8F6426018DE
:10148800C0F30B00A2F83F0040F6FE708442B2F8A9
:10149800420088BF41F48051A2F83D10C0F30B010F
:1014A800B3F8F6426018C0F30B00A2F8440040F607
:1014B800FE708442B2F8050088BF41F48051C0F341
:1014C8000B00A2F84210B3F8F6422118C1F30B0141
:1014D800A2F8071040F6FE718C42B2F8391088BFA6
:1014E80040F48050C1F30B01A2F80500B3F8F642AE
:1014F8006018C0F30B00A2F83B0040F6FE7084426F
:10150800B2F8460088BF41F48051A2F83910C0F300
:101518000B01B3F8F6420819C0F30B00A2F8480013
:1015280040F6FE708442B2F8090088BF41F4805149
:10153800C0F30B00A2F84610B3F8F6420119C1F344
:101548000B01A2F80B1040F6FE718C42B2F8351070
:1015580088BF40F48050C1F30B01A2F80900B3F82A
:10156800F6420819C0F30B00A2F8370040F6FE70E7
:101578008442B2F84A0088BF41F48051A2F835107D
:10158800C0F30B01B3F8F6420819C0F30B00A2F838
:101598004C0040F6FE708442B2F80D0088BF41F45A
:1015A8008051C0F30B00A2F84A10B3F8F6420119B3
:1015B800C1F30B01A2F80F1040F6FE718C42B2F88D
:1015C800311088BF40F48050C1F30B01A2F80D0020
:1015D800B3F8F6426018C0F30B00A2F8330040F6E7
:1015E800FE708442B2F84E0088BF41F48051A2F8E0
:1015F8003110C0F30B01B3F8F6426018C0F30B00CA
:10160800A2F8500040F6FE708442B2F8110088BF7C
:1016180041F48051C0F30B00A2F84E10B3F8F64223
:101628002118C1F30B01A2F8131040F6FE718C4289
:10163800B2F82D1088BF40F48050C1F30B01A2F816
:101648001100B3F8F6426018C0F30B00A2F82F009F
:1016580040F6FE708442B2F8520088BF41F48051CF
:10166800A2F82D10C0F30B01B3F8F6426018C0F3CE
:101678000B00A2F8540040F6FE708442B2F8150040
:1016880088BF41F48051C0F30B00A2F85210B3F8A0
:10169800F6422118C1F30B01A2F8171040F6FE71AB
:1016A8008C42B2F8291088BF40F48050C1F30B0176
:1016B800A2F81500B3F8F6426018C0F30B00A2F8C0
:1016C8002B0040F6FE708442B2F8560088BF41F401
:1016D8008051A2F82910C0F30B01B3F8F642601844
:1016E800C0F30B00A2F8580040F6FE708442B2F82E
:1016F800190088BF41F48051C0F30B00A2F85610BE
:10170800B3F8F6422118C1F30B01A2F81B1040F6FA
:10171800FE718C42B2F8251088BF40F48050C1F3A6
:101728000B01A2F81900B3F8F6426018C0F30B00D9
:10173800A2F8270040F6FE708442B2F85A0088BF2B
:1017480041F48051A2F82510C0F30B01B3F8F6421A
:101758006018C0F30B00A2F85C0040F6FE708442EB
:10176800B2F81D0088BF41F48051C0F30B00A2F805
:101778005A10B3F8F6420119C1F30B01A2F81F1071
:1017880040F6FE718C42B2F8211088BF40F48050B8
:10179800C1F30B01A2F81D00B3F8F6426018C0F3BC
:1017A8000B00A2F8230040F6FE708442B2F85E00F7
:1017B80088BF41F48051A2F82110B3F8F642C0F373
:1017C8000B0340F6FE70E1188442C1F30B0188BF99
:1017D80043F48053A2F86010A2F85E3009B0BDE867
:1017E800F08F0DF10F07D0F8D4220DF107040DF199
:1017F800170A3D460DF108090DF1180840F6FE7666
:1018080001975B4904AFB3F8F6E203C9B64589E826
:10181800030014F8011F4FEA211C01F00F010CEB23
:101828008C1C0CEB810C9444BCF801B0CBF30B0B73
:101838000BEB0E0188BF4BF4805BC1F30B01ACF8D6
:1018480001B0ACF803104B4903C987E803004A49C3
:1018580003C988E803000199B3F8F60211F801CF2B
:10186800B04201914FEA2C110CF00F0C01EB8111E1
:1018780001EB8C011144B1F801C0CCF30B0C0CEB5B
:10188800000E88BF4CF4805C1AF8010FCEF30B0EE3
:10189800A1F801C0A1F803E0011100F00F00B3F8AE
:1018A800F6C201EB8111B44501EB80011144B1F896
:1018B8000100C0F30B0000EB0C0E88BF40F4805011
:1018C800AC42CEF30B0EA1F80100A1F803E098D1C9
:1018D800B2F83D0040F6FE75B3F8F642C0F30B00CF
:1018E8002118C1F30B01A2F83F1040F6FE718C429B
:1018F800B2F8661088BF40F48050C1F30B01A2F81B
:101908003D00B3F8F6420819AC4240F6FE75C0F344
:101918000B0088BF41F48051A2F86800B2F86A0051
:10192800A2F86610C0F30B00B3F8F6422118AC42D7
:1019380040F6FE74C1F30B0188BF40F48050A2F852
:101948006C10B2F86E10A2F86A00B3F8F602C1F390
:101958000B03A04203EB000188BF43F48053C1F39B
:101968000B01A2F86E30A2F8701009B0BDE8F08F34
:10197800FC100108BC110108C8110108F0B54FF0AE
:10198800FF310546DE4A0626DE4B07202DED028B89
:1019980085B0C5F8E01285F8F41200211E70B0EE8B
:1019A800408AC3F80110C2F801100C211670C5F85E
:1019B800FC04C5F80865C5F80015C5E9B523022378
:1019C8000122C5F8F8344FF48073A5F8DC321311FE
:1019D800D5F8D4129400002003EB831302F00F070C
:1019E800A4B20132CE54D5F8D41264F30F00D5F85E
:1019F800D8C2202A194464F31F4001EB8701C1F8BB
:101A080001000CF80360D5F8D812194401EB8701DE
:101A1800C1F80100DBD105F5397795F8DC12BA4A2F
:101A280041F04001384601F001FF384601F004FF5B
:101A380095F8DD12384641F0400101F037FF38468D
:101A480001F036FF2846FFF7F1FCB5F80C35023BEC
:101A58009BB2012B40F29D800224B0EE480A05F5A6
:101A68001C700E231B221C210094CDE9014401F0B7
:101A780097FD0023B0EE480A05F170001A46DFED25
:101A8800A30AC12101F0ECFC0023B0EE480A05F1DD
:101A980090001A46DFED9D0AC42101F0E1FC002305
:101AA800B0EE480A05F1B0001A46DFED980AC221E7
:101AB80001F0D6FC0023B0EE480A05F1D0001A4622
:101AC800DFED920AC52101F0CBFC0023B0EE480AF5
:101AD80005F1F0001A46DFED8D0AC32101F0C0FCC4
:101AE8000023B0EE480A05F588701A46DFED870A2C
:101AF800C62101F0B5FC0023DFED840AB0EE480AE8
:101B08001A4605F52D70C02101F0AAFCB0EE480A6E
:101B1800234628460822012102F0B6FAB0EE480A08
:101B2800234605F110000922012102F0ADFAB0EEBA
:101B3800480A234605F120000A22012102F0A4FAEE
:101B4800B0EE480A234605F130000D22012102F0CB
:101B58009BFAB0EE480A234605F1400019220121FC
:101B680002F092FAB0EE480A234605F150001A2214
:101B7800012102F089FAB0EE480A23460722012122
:101B880005F1600005B0BDEC028BBDE8F04002F045
:101B98007BBAD5E9B5234FF0FF36C5E9B532B2F8BF
:101BA80003100136A3F8031076B2B2F80710022E1C
:101BB800A3F80710B2F80B10A3F80B10B2F80F1027
:101BC800A3F80F10B2F81310A3F81310B2F81710F7
:101BD800A3F81710B2F81B10A3F81B10B2F81F10C7
:101BE800A3F81F10B2F82310A3F82310B2F8271097
:101BF800A3F82710B2F82B10A3F82B10B2F82F1067
:101C0800A3F82F10B2F83310A3F83310B2F8371036
:101C1800A3F83710B2F83B10A3F83B10B2F83F1006
:101C2800A3F83F10B2F84410A3F84410B2F84810D3
:101C3800A3F84810B2F84C10A3F84C10B2F85010A2
:101C4800A3F85010B2F85410A3F85410B2F8581072
:101C5800A3F85810B2F85C10A3F85C10B2F8601042
:101C6800A3F86010B2F86410A3F86410B2F8681012
:101C7800A3F86810B2F86C10A3F86C10B2F87010E2
:101C8800A3F87010B2F87410A3F87410B2F87810B2
:101C9800A3F87810B2F87C10A3F87C10B2F8802072
:101CA800A3F8802085F8F46225D0AB19002406EB50
:101CB8008616384693F8DC1241F0400101F0F6FD33
:101CC80006EB8403D5F8D822E1B201341A44384629
:101CD800B2F80330B2F8012001F03EFE102CEFD12B
:101CE80095F9F462012E3FF7B7AE013676B2022EAF
:101CF80085F8F462D9D1FF2385F8F432ACE600BF49
:101D0800B406003030060030D46C04246F12033B54
:101D1800F8B5022405461E22002123462DED028B2C
:101D2800B0EE408AC0F8FC44C0F8F84402F0ACF9C0
:101D380023461D22002105F11000B0EE480A02F0EA
:101D4800A3F94FF0FF31BA4A4FF0060CB94B4FF4E4
:101D58000070C5F8E01285F8F412002182F800C07E
:101D6800C2F80110A5F8DC0283F800C0C3F801101E
:101D7800C5E9B52301221311D5F8D4129400002027
:101D880003EB831302F00F06A4B2013201F803C07B
:101D9800D5F8D41264F30F00D5F8D872202A194464
:101DA80064F31F4001EB8601C1F8010007F803C086
:101DB800D5F8D812194401EB8601C1F80100DAD12F
:101DC80005F5397795F8DC129B4A41F04001384611
:101DD80001F02CFD384601F02FFD95F8DD1238464C
:101DE80041F0400101F062FD384601F061FD2846EE
:101DF800FFF71CFBB5F80C35023B9BB2012B61D9F0
:101E0800012115200CF04AFF012114201B260CF09B
:101E180045FF012113201A240CF040FF0023DFEDB9
:101E2800870AB0EE480A1A4605F17000C12101F090
:101E380017FB1C200121C5F81465C5F81005C5F865
:101E48002C05C5F818450CF029FF30460121C5F8C6
:101E580030650CF023FF20460021C5F834450CF00E
:101E68001DFF0023B0EE480A05F5F870C5F81C35CB
:101E7800C221C5F82035C5F82435C5F8283501F044
:101E880017FBB0EE480A05F50470C32101F010FBFA
:101E9800B0EE480A05F50C70CA2101F009FBB0EE56
:101EA800480A05F51470C92101F002FB0121172029
:101EB8000CF0F4FE01211620BDEC028BBDE8F840C1
:101EC8000CF0ECBED5E9B5234FF0FF36C5E9B532C5
:101ED800B2F803100136A3F8031076B2B2F807106F
:101EE800022EA3F80710B2F80B10A3F80B10B2F8E3
:101EF8000F10A3F80F10B2F81310A3F81310B2F8CC
:101F08001710A3F81710B2F81B10A3F81B10B2F89B
:101F18001F10A3F81F10B2F82310A3F82310B2F86B
:101F28002710A3F82710B2F82B10A3F82B10B2F83B
:101F38002F10A3F82F10B2F83310A3F83310B2F80B
:101F48003710A3F83710B2F83B10A3F83B10B2F8DB
:101F58003F10A3F83F10B2F84410A3F84410B2F8A9
:101F68004810A3F84810B2F84C10A3F84C10B2F877
:101F78005010A3F85010B2F85410A3F85410B2F847
:101F88005810A3F85810B2F85C10A3F85C10B2F817
:101F98006010A3F86010B2F86410A3F86410B2F8E7
:101FA8006810A3F86810B2F86C10A3F86C10B2F8B7
:101FB8007010A3F87010B2F87410A3F87410B2F887
:101FC8007810A3F87810B2F87C10A3F87C10B2F857
:101FD8008020A3F8802085F8F46225D0AB1900246E
:101FE80006EB8616384693F8DC1241F0400101F002
:101FF8005DFC06EB8403D5F8D822E1B201341A441B
:102008003846B2F80330B2F8012001F0A5FC102CD4
:10201800EFD195F9F462012E3FF7F2AE013676B2B0
:10202800022E85F8F462D9D1FF2385F8F432E7E669
:10203800BC07003038070030D46C04246F12033B0F
:1020480010B400230224A0F80C150139C0F8083593
:10205800C0F8F844C0F8FC34C0F80035C0F80435BE
:10206800032913D8DFE801F00E0A06025DF8044BD5
:10207800FFF770B95DF8044BFFF74ABE5DF8044BF3
:10208800FFF77CBC5DF8044BFFF70CB95DF8044B17
:10209800704700BF10B40623094C0A480A490B4A86
:1020A800237084F84130037080F841300B7081F858
:1020B8004130137082F841305DF8044B704700BF1F
:1020C800BC07003038070030B40600303006003056
:1020D8002DE9F04F8BB0DFF85C8106464F4800AF22
:1020E8000D46144601F062FF4369D8E90521002A2C
:1020F80000F0E681002940F09F800222D8F804A071
:102108004FF008097A62BAF1000F00F09F80A20030
:10211800E946012B02F1070222F00702ADEB020D9E
:102128006846ADEB020DEB4600F0D181022B00F0C2
:102138006182002B40F0C081002C00F0BD811A465E
:10214800D8ED0B6A9FED367A0146331D36F922C069
:10215800083107EE90CA33F922C00232F8EEE77A66
:10216800944267EE877A67EEA67A41ED027A07EE27
:1021780090CAF8EEE77A67EE877A67EEA67A41EDBD
:10218800017AE3D859462246D047002198ED046ADF
:102198002B1DDFED246A24489FED247ADFED245AB5
:1021A800DBED007A024666EE277AF4EEE67AF1EE87
:1021B80010FA0DD9F4EEC77AF1EE10FAA8BFF0EED6
:1021C800477A67EEA57AFDEEE77A17EE902A12B203
:1021D800DBED017A45F8212066EE277AF4EEE67AFF
:1021E800F1EE10FA40F2E281F4EEC77A0BF1080B37
:1021F800F1EE10FAA8BFF0EE477A67EEA57AFDEE89
:10220800E77A17EE902A12B243F821200231A14250
:10221800C6D3CD462C37BD46BDE8F08FFC670424F5
:102228000000003804FF7FBF0280FFFF04FF7F3FEC
:1022380000FEFF46E86704240422D8F804A04FF003
:1022480010097A62BAF1000F7FF461AF3B62D8F8E7
:102258000030BB61002BDDD0D948C7F810D001F0A1
:102268000FFF7B6AF860022B3B6A00F04C826A46DB
:1022780060084946012BA2EBC4029546B860C4F336
:102288005D02EB46ABEBC4008546EE46ADEB090DAF
:102298000BEB820968460EEB820CADEB010D014693
:1022A800C7F820D0F961C0E900B909EB820088605D
:1022B8000CEB820178617869029101EB820100EBF5
:1022C80082000391F969CDE900ECC86000F0FE8353
:1022D800022B00F00D83002B40F0FD81002C00F054
:1022E8005B847A6A022A00F05D841946D8F82020B7
:1022F800FB68DFEDB45A02EB8302FB697D6102F1F2
:10230800040ED3E902A0331D844636F92100D8ED26
:102318000B7A06EE100A33F9210006EE900A32F91C
:102328002100B8EEC66A07EE100AF8EEE66A3EF932
:102338002100B8EEC77A26EE256A66EEA56A27EE72
:10234800257A26EE276A66EEA76A27EE277A07EE31
:10235800900A48080231F8EEE77A0BEB80058C42C8
:1023680085ED006A09EB800567EEA57AC5ED006A80
:102378000AEB80050CEB800085ED007A98ED0B7A6E
:1023880067EE877AC0ED007ABFD87D69BB69BA6805
:10239800D7E9070198473B6A98ED047AD3E900CE5C
:1023A8007B6A022B00F04D84D8F828300020FA68A8
:1023B800DFED8B6A03EB820A3B6A9FED836ADFEDF0
:1023C800835A0AF10408824ED3E9029B2B1D420866
:1023D8000CEB82019200D1ED007A67EE277AF4EED9
:1023E800E67AF1EE10FA40F28C81F4EEC67AF1EE5C
:1023F80010FAA8BFF0EE467A67EEA57AFDEEE77A06
:1024080017EE901A09B245F820100EEB0201D1ED33
:10241800007A67EE277AF4EEE67AF1EE10FA40F2E7
:102428006E81F4EEC67AF1EE10FAA8BFF0EE467AA5
:1024380067EEA57AFDEEE77A17EE901A09B243F82F
:10244800201009EB0201D1ED007A67EE277AF4EE4D
:10245800E67AF1EE10FA40F25081F4EEC67AF1EE27
:1024680010FAA8BFF0EE467A67EEA57AFDEEE77A95
:1024780017EE901A09B25A444AF82010D2ED007AA1
:1024880067EE277AF4EEE67AF1EE10FA40F22E8142
:10249800F4EEC67AF1EE10FAA8BFF0EE467A67EECF
:1024A800A57AFDEEE77A17EE902A12B248F82020B6
:1024B800023084428BD813E122465946D047A8E619
:1024C80000297FF41AAE2C37BD46BDE8F08F002CEA
:1024D800F2D0D8ED0B6A84469FED3E7A0021331D79
:1024E80056F821200CF1080C82F40002A2F5000233
:1024F80007EE902A53F821200231F8EEE77A82F4A9
:1025080000028C42A2F5000267EE877A67EEA67A8F
:102518004CED027A07EE902AF8EEE77A67EE877AB2
:1025280067EEA67A4CED017ADAD822465946D047AA
:10253800002298ED046A2B1DDFED296A26489FEDDD
:10254800227ADBED007A014666EE277AF4EEE67A27
:10255800F1EE10FA0CD9F4EEC77AF1EE10FAA8BF32
:10256800F0EE477AF0EE675AFEEEE45A15EE901A4E
:10257800DBED017A45F8221066EE277AF4EEE67A6A
:10258800F1EE10FA2ED9F4EEC77A0BF1080BF1EE42
:1025980010FAA8BFF0EE477AFEEEE47A17EE901A2A
:1025A80043F8221002329442CBD832E643F8210095
:1025B80002310BF1080B8C423FF6F2AD29E600BF61
:1025C800006804240000003804FF7F3F00FEFF4637
:1025D8000280FFFF000000347E0080FF0000003012
:1025E80004FF7FBF43F8220002320BF1080B94422C
:1025F800A7D80EE6002C3FF45FAFD8ED0B6A014672
:102608001FED0A7A0022331D844656F8220008314D
:1026180007EE900A53F822000232F8EEE77A944265
:1026280067EE877A67EEA67A41ED027A07EE900A9E
:10263800F8EEE77A67EE877A67EEA67A41ED017AD7
:10264800E3D8604622465946D047002298ED046AEE
:102658002B1D5FED1D6AA0489FEDA47ADBED007A83
:10266800014666EE277AF4EEE67AF1EE10FA0CD916
:10267800F4EEC77AF1EE10FAA8BFF0EE477AF0EE62
:10268800675AFEEEE05A15EE901ADBED017A45F82E
:10269800221066EE277AF4EEE67AF1EE10FA12D9F5
:1026A800F4EEC77A0BF1080BF1EE10FAA8BFF0EEC2
:1026B800477AFEEEE07A17EE901A43F822100232BB
:1026C8009442CBD8A5E543F8220002320BF1080B5F
:1026D8009442C3D89DE5BA68BB69D7E90701984712
:1026E800D7F810D02C37BD46BDE8F08F48F82060E9
:1026F800023084423FF66BAEF2E73146BBE6314624
:102708009DE631467FE6A00049466208012B00F1AC
:10271800070020F00700ADEB000DEB46ADEB000D18
:10272800BA606846ADEB090D0BEB8209EC46C7F8B9
:102738001CD0ADEB010D00EB8201CCE900B9C7F864
:1027480020D0009001917FF4C3AD002C00F02482CA
:1027580098ED0B6A331DDFED616A56F82A1081F493
:102768000001A1F5000107EE901A53F82A1081F430
:102778000001B8EEE77AA1F5000127EE267A07EE08
:10278800901A4FEA5A010AF1020AF8EEE77A0BEBBF
:10279800810027EE067A09EB8101544567EEA67A97
:1027A80080ED007A67EE867AC1ED007AD5D8BB69EC
:1027B800D7E9070198473B6A98ED047AD3E900CE38
:1027C8007B6A022B00F0DE82D8F828300020FA68F5
:1027D800DFED456A03EB820A3B6A9FED446A0AF122
:1027E80004083F4ED3E9029B2B1D42080CEB8201E3
:1027F8009200D1ED007A67EE277AF4EEE67AF1EEF0
:1028080010FA67D9F4EEC67AF1EE10FAA8BFF0EE26
:10281800467AF0EE675AFEEEE45A15EE901A45F83D
:1028280020100EEB0201D1ED007A67EE277AF4EE64
:10283800E67AF1EE10FA4BD9F4EEC67AF1EE10FA18
:10284800A8BFF0EE467AF0EE675AFEEEE45A15EEAF
:10285800901A43F8201009EB0201D1ED007A67EED7
:10286800277AF4EEE67AF1EE10FA2FD9F4EEC67A6A
:10287800F1EE10FAA8BFF0EE467AF0EE675AFEEED7
:10288800E45A15EE901A5A444AF82010D2ED007A0C
:1028980067EE277AF4EEE67AF1EE10FA10D9F4EE44
:1028A800C67AF1EE10FAA8BFF0EE467AFEEEE47AA8
:1028B80017EE902A48F820200230844295D80FE776
:1028C80048F82060023084428FD809E73146DAE7B9
:1028D8003146BEE73146A2E7007E008000000034A2
:1028E8007E0080FF0000003004FF7FBF04FF7F3FB1
:1028F800002C00F051817B6A022B00F07B81D8F814
:102908002030FA687D6103EB820CFB695FED0B5A9E
:1029180000220CF1040ED3E902A1331D0D4656F82E
:102928002210D8ED0B7A07EE101A53F82210B8EEE1
:10293800C76A07EE101A5CF82210F8EEC76A07EEAD
:10294800101A26EE256A5EF82210B8EEC77A66EEEF
:10295800A56A26EE276A27EE257A66EEA76A27EE8D
:10296800277A07EE901A51080232F8EEE77A0BEB55
:102978008100944280ED006A09EB810067EEA57A38
:10298800C0ED006A0AEB810005EB810180ED007A59
:1029980098ED0B7A67EE877AC1ED007ABFD87D692A
:1029A800BB69BA68D7E9070198473B6A98ED047A8A
:1029B800D3E900CE7B6A022B00F08E81D8F828304C
:1029C8000020FA685FED386A03EB820A3B6A1FED64
:1029D800396A0AF10408E04ED3E9029B2B1D42082C
:1029E8000CEB82019200D1ED007A67EE277AF4EEC3
:1029F800E67AF1EE10FA67D9F4EEC67AF1EE10FA3B
:102A0800A8BFF0EE467AF0EE675AFEEEE05A15EEF1
:102A1800901A45F820100EEB0201D1ED007A67EE0E
:102A2800277AF4EEE67AF1EE10FA4BD9F4EEC67A8C
:102A3800F1EE10FAA8BFF0EE467AF0EE675AFEEE15
:102A4800E05A15EE901A43F8201009EB0201D1ED77
:102A5800007A67EE277AF4EEE67AF1EE10FA2FD9CB
:102A6800F4EEC67AF1EE10FAA8BFF0EE467AF0EE70
:102A7800675AFEEEE05A15EE901A5A444AF82010AA
:102A8800D2ED007A67EE277AF4EEE67AF1EE10FAE4
:102A980010D9F4EEC67AF1EE10FAA8BFF0EE467A35
:102AA800FEEEE07A17EE902A48F8202002308442A1
:102AB80095D815E648F82060023084428FD80FE692
:102AC8003146DAE73146BEE73146A2E7002C63D04B
:102AD800D8F820305246F9687D6003EB810CDFEDB1
:102AE8009F5A331D7D690CF1040E56F82210D8ED5B
:102AF8000B7A81F40001A1F5000107EE101A53F8D2
:102B0800221081F40001B8EEC76AA1F5000126EE93
:102B1800256A07EE101A5CF8221081F40001F8EE1D
:102B2800C76A26EE276AA1F5000166EEA56A07EED8
:102B3800101A5EF82210B8EEC77A81F4000166EE2A
:102B4800A76AA1F5000127EE257A27EE277A07EE76
:102B5800901A51080232F8EEE77A0BEB810A944298
:102B68008AED006A09EB810A67EEA57ACAED006A68
:102B780005EB810A00EB81018AED007A98ED0B7A6A
:102B880067EE877AC1ED007AAFD8BB69D7E9015201
:102B9800D7E9070198470EE60022BB69D7E9070184
:102BA80098479DE51A4698ED0B6ADFED6D6A331D6F
:102BB80036F9221007EE101A33F9221007EE901A90
:102BC800B8EEC77A51080232F8EEE77A27EE267A8D
:102BD8000BEB8100944209EB810167EEA67A27EEA0
:102BE800067A67EE867A80ED007AC1ED007ADFD842
:102BF800FFF7CCBB98ED0B6A0022DFED5A6A331D54
:102C080056F8221007EE901A53F82210B8EEE77A19
:102C180007EE901A51080232F8EEE77A27EE267A84
:102C28000BEB8100944209EB810167EEA67A27EE4F
:102C3800067A67EE867A80ED007AC1ED007ADFD8F1
:102C4800AEE60021DFED4A6A9FED4A6A2B1DDFEDF3
:102C5800465A46484A0806460CEB82089200D8EDC8
:102C6800007A67EE277AF4EEE67AF1EE10FA0DD9DB
:102C7800F4EEC67AF1EE10FAA8BFF0EE467A67EEE7
:102C8800A57AFDEEE77A17EE906A36B2724445F8F7
:102C98002160D2ED007A67EE277AF4EEE67AF1EE5B
:102CA80010FA13D9F4EEC67AF1EE10FAA8BFF0EED6
:102CB800467A67EEA57AFDEEE77A17EE902A12B209
:102CC80043F8212002318C42C4D809E543F8210099
:102CD80002318C42BED803E50021DFED256A9FED65
:102CE800256A2B1D1C484A0806460CEB82089200F0
:102CF800D8ED007A67EE277AF4EEE67AF1EE10FA6C
:102D08000CD9F4EEC67AF1EE10FAA8BFF0EE467AC6
:102D1800F0EE675AFEEEE05A15EE906A724445F8F6
:102D28002160D2ED007A67EE277AF4EEE67AF1EECA
:102D380010FA21D9F4EEC67AF1EE10FAA8BFF0EE37
:102D4800467AFEEEE07A17EE902A43F82120023107
:102D58008C42C8D8C4E400BF007E00800000003464
:102D6800000000380000003000FEFF460280FFFF30
:102D780004FF7FBF04FF7F3F43F8210002318C42EC
:102D8800B1D8ADE400215FED066A1FED066A2B1D80
:102D98001F484A0806460CEB82089200D8ED007AD4
:102DA80067EE277AF4EEE67AF1EE10FA0CD9F4EE33
:102DB800C67AF1EE10FAA8BFF0EE467AF0EE675A3E
:102DC800FEEEE45A15EE906A724445F82160D2EDA1
:102DD800007A67EE277AF4EEE67AF1EE10FA10D967
:102DE800F4EEC67AF1EE10FAA8BFF0EE467AFEEEDF
:102DF800E47A17EE902A43F8212002318C42C8D891
:102E08006EE443F8210002318C42C2D868E400BF66
:102E18007E0080FF30B5154C85B01546046004F17E
:102E2800080C01AB07C98CE80700D4ED047AF5EE6D
:102E3800C07A83E80700F1EE10FA14DDF7EE006AB5
:102E480086EEA77A84ED0B7A6DB1204640F8145FC0
:102E580001F0ACF8064903690020064AE1616262A4
:102E6800E36005B030BD012005B030BDE86704243B
:102E7800402800304008003070B5174C84B0154623
:102E88001E46046004F108030DF1040C07C983E829
:102E98000700D4ED047AF5EEC07A8CE80700F1EE6D
:102EA80010FA11DDF7EE006A86EEA77A84ED0B7A48
:102EB80055B1204640F8145F01F078F807490369D6
:102EC800074AE1616262E360064A0020064BA66198
:102ED8002262A36204B070BDE86704244028003071
:102EE8004008003040380030401800300068083092
:102EF800704700BFB1F5806F03680A4628BF4FF4DA
:102F08008062B1F5806F9A6094BF002001207047FD
:102F18000068143001F0A2B870B504688AB063691B
:102F2800E160CBB104F11405284601F03FF884466E
:102F3800EE46E668BCE80F00AEE80F00BCE80F00FC
:102F4800AEE80F009CE803008EE8030069462846B7
:102F5800049600F02DFFF0B9A369CBB104F1180570
:102F6800284601F023F88446EE46E468BCE80F00E2
:102F7800AEE80F00BCE80F00AEE80F009CE80300C5
:102F88008EE8030069462846049400F011FF10B942
:102F980000200AB070BD01200AB070BD30B50468C9
:102FA80083B00D46A3694BB1A3680020A26A216AC9
:102FB8009B00009004F1180000F0FAFFA36807488E
:102FC800626A9B00E169009004F1140000F0F0FFD0
:102FD8000020C4E9005003B030BD00BFD92000086C
:102FE800024B0022C3E90522704700BFE8670424AA
:102FF80010B584B00346012403A8ADF80C30ADF831
:103008000E4000F0F7FA214603A800F0D1FB204655
:1030180001F080F8002103A800F0CAFB204601F067
:1030280079F8214603A800F0C3FB04B010BD00BF27
:1030380070B50B4604467A491846236001F0E2F958
:103048001B2220681A230021C0E9212301F0F0FA8D
:103058008C2320684621237101F02CFA2068402136
:1030680003681B6898470021206801F02BFA0122A9
:1030780021792068D14001F0DFF9206803685B6995
:103088009847217905462068490801F013FA206815
:10309800402103681B689847206805F07F01036892
:1030A8001B689847206801F039FA042001F032F8CB
:1030B80021792068490801F0FDF92068402103685A
:1030C8001B6898470021206801F0FCF9012221794A
:1030D8002068D14001F0B0F9206803685B6998471F
:1030E800217905462068490801F0E4F92068402163
:1030F80003681B689847206805F0BF0103681B68D0
:103108009847206801F00AFA042001F003F82179B1
:103118002068490801F0CEF92068432103681B683C
:1031280098470021206801F0CDF901222179206813
:10313800D14001F081F9206803685B6998472179DB
:1031480006462068490801F0B5F920684821036857
:103158001B6898470021206801F0B4F90122217901
:103168002068D14001F068F9206803685B699847D6
:10317800217905462068490801F09CF92068432117
:1031880003681B689847206846F001010368C9B2C4
:103198001B689847206801F0C1F92179206849081F
:1031A80001F088F92068482103681B68984720685F
:1031B80045F001010368C9B21B689847206801F00F
:1031C800ADF921792068490801F074F92068402197
:1031D80003681B6898470021206801F073F90122F1
:1031E80021792068D14001F027F9206803685B69DC
:1031F8009847217905462068490801F05BF920685D
:10320800402103681B689847206805F0CF010368D0
:103218001B689847206801F081F9002070BD00BF45
:10322800801A060038B503460446154643F8042BB1
:1032380007C983E807002846884901F0E3F81B22FC
:10324800206874230021C0E9212301F0F1F9A17954
:1032580020681A31C9B2217401F024F920681E21AE
:1032680003681B6898472068002103681B68984713
:10327800206801F053F90A2000F04CFF217C2068F7
:1032880001F010F92068002103681B68984720683E
:10329800172103681B689847206801F03FF90A2046
:1032A80000F038FF217C206801F0FCF8206802213A
:1032B80003681B6898472068172103681B689847AC
:1032C800206801F02BF90A2000F024FF217C2068F7
:1032D80001F0E8F82068042103681B689847206813
:1032E800002103681B689847206801F017F90A2035
:1032F80000F010FF217C206801F0D4F82068062136
:1033080003681B6898472068002103681B68984772
:10331800206801F003F90A2000F0FCFE217C2068F7
:1033280001F0C0F82068082103681B6898472068E6
:10333800122103681B689847206801F0EFF80A20FB
:1033480000F0E8FE217C206801F0ACF820680A2132
:1033580003681B6898472068002103681B68984722
:10336800206801F0DBF80A2000F0D4FE2379217CE4
:10337800002B206814BF6225422501F093F82068CD
:103388000C2103681B6898472068294603681B6856
:103398009847206801F0C2F80A2000F0BBFE627965
:1033A8002379206883F00103D4E902510D43217C7D
:1033B80045EA421545EA831501F074F820680E21A4
:1033C800EDB203681B6898472068294603681B68A4
:1033D8009847206801F0A2F80A2000F09BFE217CA3
:1033E800206801F05FF82068102103681B6898477F
:1033F8002068002103681B689847206801F08EF850
:103408000A2000F087FE217C206801F04BF8206834
:10341800122103681B6898472068002103681B680D
:103428009847206801F07AF80A2000F073FE217CA2
:10343800206801F037F82068122103681B68984754
:103448002068012103681B689847206801F066F826
:103458000A2000F05FFE002038BD00BF801A060079
:10346800F8B50D46044600211E46284617462DEDA0
:10347800028BF0EE408AB0EE608A0BF00FFCB6EEDD
:10348800007A0023F7EE007A257068EE880AC4ED0A
:10349800028A2777E36060EE870AC4ED057AA361A4
:1034A800667787EEA07ABDEC028B84ED017AF8BDD1
:1034B80038B50D460446002128462DED028BB0EEA6
:1034C800408A0BF0EBFBDFED0F7AB6EE007AF7EEF1
:1034D800006A4FF0804268EE277A002184ED067A70
:1034E8004FF48073257067EE877A84ED028AE16075
:1034F800626186EEA77AA383BDEC028B84ED017A24
:1035080038BD00BF6F12033B244B00220B2011462D
:1035180010B5D3F8D84082B044F00104C3F8D840BD
:10352800D3F8D83003F001030193019B02F0EEFBBE
:103538000B2002F027FC00220C20114602F0E6FBCB
:103548000C2002F01FFC00220D20114602F0DEFBC9
:103558000D2002F017FC00220E20114602F0D6FBC7
:103568000E2002F00FFC00220F20114602F0CEFBC5
:103578000F2002F007FC00221020114602F0C6FBC3
:10358800102002F0FFFB00221120114602F0BEFBC2
:10359800112002B0BDE8104002F0F4BB004402580C
:1035A8002DE9F04104461E460023154608462DED38
:1035B800028B63614FF6FF73B0EE408A9DF824805A
:1035C800E2742382A1749DF820109DF828700BF0F6
:1035D80065FB414628460BF061FBB0EE480A3B46C6
:1035E800324620460121BDEC028BBDE8F04100F0D7
:1035F8004BBD00BF30B583788FB00446022B39D05D
:10360800032B00F0D180A3F10102B2FA82F2520931
:10361800E3780A92012B05D0A3F10203B3FA83F3EE
:103628005B095B0000222046CDE90B3200F0D2F89E
:103638000546204600F0D6F823780990082B13D8C1
:10364800DFE803F02D405366798C9F051A00574B2D
:10365800D3F8E02042F08002C3F8E020D3F8E0304D
:1036680003F080030793079B09A9284603F0EAFFA4
:103678000FB030BD1122CBE74C4B09A92846D3F82F
:10368800E02042F48072C3F8E020D3F8E03003F47D
:1036980080730893089B03F0D5FF0FB030BD434BF0
:1036A80009A92846D3F8E02042F00102C3F8E02037
:1036B800D3F8E03003F001030093009B03F0C2FF4E
:1036C8000FB030BD394B09A92846D3F8E02042F0A5
:1036D8000202C3F8E020D3F8E03003F002030193BC
:1036E800019B03F0AFFF0FB030BD304B09A928464E
:1036F800D3F8E02042F00402C3F8E020D3F8E03029
:1037080003F004030293029B03F09CFF0FB030BD4B
:10371800264B09A92846D3F8E02042F00802C3F84E
:10372800E020D3F8E03003F008030393039B03F091
:1037380089FF0FB030BD1D4B09A92846D3F8E020FA
:1037480042F01002C3F8E020D3F8E03003F0100391
:103758000493049B03F076FF0FB030BD134B09A907
:103768002846D3F8E02042F02002C3F8E020D3F83E
:10377800E03003F020030593059B03F063FF0FB0CF
:1037880030BD0A4B09A92846D3F8E02042F0400290
:10379800C3F8E020D3F8E03003F040030693069B1B
:1037A80003F050FF0FB030BD1A4631E7004402580D
:1037B80070B506460D4600F00DF80446304600F098
:1037C80011F82A1E0146204618BF0122BDE87040A4
:1037D80004F03CB9024B027853F82200704700BF4E
:1037E800F4110108024B427833F81200704700BF09
:1037F800D411010838B584461C469DF8103015468A
:1038080008468CF800108CF8043001218CF802402E
:103818008CF801200BF042FA284601210BF03EFA01
:1038280020460121BDE838400BF038BA0023C260B9
:1038380001704360704700BF38B504460021C06876
:1038480000F0F6FE2178E06800F02CFEE06800F059
:1038580065FE606008B1002038BD05462178E06843
:1038680000F020FEE068294603681B689847E06876
:10387800202103681B689847E06800F04FFE217814
:10388800E068656000F00EFEE068012103681B68CF
:103898009847E068362103681B689847E06800F09D
:1038A8003DFE03460120636038BD00BF01707047CC
:1038B80038B5044600250178C068656000F0F2FD5F
:1038C800E068294603681B689847E0682021036878
:1038D8001B689847E06800F021FE2178E068656081
:1038E80000F0E0FDE068012103681B689847E06884
:1038F800362103681B689847E06800F00FFE606097
:1039080038BD00BFF8B504460F4601781646C068B2
:103918001D4600F0C7FDE068394603681B689847F4
:10392800E068F1B203681B689847E068C6F30421B1
:1039380003681B689847E068E9B203681B68984702
:10394800E068C5F3042103681B689847E06800F045
:10395800E5FD6060F8BD00BF10B40F294FF000040A
:10396800446004D9FE235DF8044B43607047890026
:103978005DF8044B063101F0FE01FFF7C3BF00BF3D
:103988002DE9F041821D05468AB0031D05F10A01A3
:103998000830CDE9052305F10C02AB69CDE9070133
:1039A8000992002B3BD0EF69B7FA87F77F0901230B
:1039B800022205AE4FF006080393CDE9012356F81D
:1039C800044B2B792278934217D02B68F3B1012B43
:1039D80002D1F2B10A2304932046FFF703FF0346FE
:1039E80020460093FFF7F6FE694603F02BFE0AAB6C
:1039F8009E42E4D10AB0BDE8F081697963789942C2
:103A0800E3D1002FF3D02B68002BE0D1CDF8108044
:103A1800E2E76378022B0CBF08230A23DBE70127C0
:103A2800C5E700BF934A0368934270B5044688B05F
:103A38007ED0203293427BD08F4A934204D02032EA
:103A4800934201D008B070BD8C4D8D48D5F8E03058
:103A580043F00103C5F8E030D5F8E03003F0010386
:103A68000393039BD5F8E03043F00803C5F8E03032
:103A7800D5F8E03003F008030493049BD5F8E03050
:103A880043F04003C5F8E030D5F8E03003F04003D8
:103A98000593059BD5F8F03043F40003C5F8F030E2
:103AA800D5F8F03003F400030693069BFFF768FF90
:103AB800D5F8D820734B42F001022168D3F85C0294
:103AC800C5F8D820D5F8D82002F0010207926A4A32
:103AD800079C914200F09280D3F88022013A18BFE7
:103AE80001229201002840F0B3806748582103F270
:103AF8002C4403F54775C3F82C0400232046C4E979
:103B080001124FF480524FF48061636262614FF496
:103B18008042C4E903314FF48073C4E906234FF4AB
:103B28000033236202F04EFB00287CD0FFBEFEE784
:103B3800524D544ED5F8E030304643F01003C5F8E6
:103B4800E030D5F8E03003F010030093009BD5F87F
:103B5800F03043F48003C5F8F030D5F8F03003F4C2
:103B680080030193019BFFF70BFFD5F8D83021683C
:103B780043F001033F4A3068C5F8D8309142D5F880
:103B8800D83003F001030293029B27D0736A013BEC
:103B980018BF01239B01002852D13B4A06F5E8745F
:103BA8005821C036C6F8102100222046C4E9011366
:103BB8004FF480534FF48061626263614FF4807305
:103BC800C4E903214FF48042C4E906234FF40033CB
:103BD800236202F0F7FA08B3FFBEFEE7336A013B3F
:103BE80018BF01239B0118BB02F5284206F5AC74E7
:103BF800572128360C32C6F83021D5E7D3F87C2275
:103C0800013A18BF0122920158BB2048572103F5F9
:103C18006D7403F52175C3F8B4036EE7C6E9204453
:103C2800A66308B070BDC5E92044A56308B070BD9F
:103C3800174A06F5AC7459212836C6F83021B3E77F
:103C4800144A06F5E8745A21C036C6F81021ABE7C5
:103C580010485A2103F22C4403F54775C3F82C0485
:103C68004BE70B48592103F56D7403F52175C3F82B
:103C7800B40342E704580140045C01400044025880
:103C8800746A0424186804242800024010000240C2
:103C98005800024070000240014803F0BBBA00BF60
:103CA80070690424014803F0B5BA00BFE869042428
:103CB800014803F0AFBA00BFCC6B0424014803F0FD
:103CC800A9BA00BF446C04241A4A0368934210B48A
:103CD8000BD02032934208D0174A934216D0203294
:103CE800934213D05DF8044B7047144B0022D3F86D
:103CF8005442C3F85822002CF4D0D3F84802D3E930
:103D0800931223465DF8044B520818470B4B0022C8
:103D1800D3F8B044C3F8B424002CE3D0D3F8AC24CF
:103D2800D3F8A814D3F8A404520823465DF8044B2A
:103D3800184700BF04580140045C01401868042477
:103D4800184A0368934210B40BD02032934208D02B
:103D5800154A934217D02032934214D05DF8044B91
:103D68007047124BD3E994245208C3F85822002C08
:103D7800F4D0D3E99201234601EB820100EB8200E3
:103D88005DF8044B1847094BD3F8AC24D3F8B0447A
:103D98005208C3F8B424002CE0D0D3F8A814D3F800
:103DA800A404E8E704580140045C014018680424AE
:103DB8002DE9F04F0C684FF41777774E87B004FB66
:103DC80007F7012C06EB0708C0F8008000F39C8079
:103DD8004FF0000907F512730D468E4646F803901A
:103DE8003344C446C3F80490C8F8509266A3D3E994
:103DF800002367A1D1E90001CDE902230DEB84037B
:103E0800CDE90401D3F808B0D3F810A0BEE80F003C
:103E1800ACE80F00BEE80F00ACE80F009EE8030016
:103E2800C8F828B0C8F8C0A08CE803002B69042B98
:103E38000DD8DFE803F07D87910374004FF4177302
:103E48004BF6803203FB04639A64C3F8E020AA6946
:103E5800296A002A54D000294FF0010214BF032117
:103E680002214FF4177303FB0463C3E90B12EA69D9
:103E7800696A002A4CD1003918BF012168694FF4DA
:103E88001773022803FB0463C3E9311206D8434BB6
:103E980013F80090424B53F8203001934FF41773F6
:103EA8000022404907F1280004FB03F3304403F1E2
:103EB800380403F1500C03F1D0050A510C44626038
:103EC80003F1E80433445A645A6341F80C208C44E3
:103ED800CCF80420DA654A510D446A60C3F8DC2046
:103EE800C3F8CC200A510C4401996260C3F8F4204D
:103EF80002234A4607F098FC002837D0FFBEFEE7A9
:103F0800003918BF0121ACE7012007B0BDE8F08FE8
:103F180000294FF0010214BF03210221AEE74FF43C
:103F28001773214A03FB04639A64C3F8E0208EE701
:103F38004FF417734FF4FA5203FB04639A64C3F8FF
:103F4800E02084E74FF417734FF47A5203FB0463BD
:103F58009A64C3F8E0207AE74FF417734FF4FA42F3
:103F680003FB04639A64C3F8E02070E707F1C0001C
:103F780002234A460199304407F056FC0028C4D071
:103F8800FFBEFEE7AFF3008004580140045C014027
:103F980024580140245C0140186804244412010894
:103FA800381201081C680424007701000068704773
:103FB800F8B504689DB20F461646C4F85032069B01
:103FC800C4F85432A369012BC4E9921222D0636A5F
:103FD8002A46012B0FD0314604F1C00007F0C0FC7F
:103FE800236A2A46012B0ED0314604F1280007F037
:103FF800B7FC0020F8BD04F1C00007F039FD236AC2
:104008002A46012BF0D1394604F1280007F030FD8B
:104018000020F8BD236A2A46012B0FD0314604F14F
:10402800280007F09DFC636A2A46012B0ED0314612
:1040380004F1C00007F094FC0020F8BD04F128004A
:1040480007F016FD636A2A46012BF0D1394604F1C0
:10405800C00007F00DFD0020F8BD00BF03681B6914
:10406800042B05D8044A02EB830393ED000A70473A
:104078009FED020A704700BF2412010800803B47E9
:104088000368D3F858027047B7EE007A84461046A2
:104098000022C7EE007A00B58E46194600238CF838
:1040A8000C208CF80D008CF800E0CCF808305DF896
:1040B80004EBCCED017A0AF0F1BD00BF30B585B054
:1040C800012401F095FE4FF480754FF04052104BDB
:1040D8006846ADF8004001920293039501F0A6FEF0
:1040E800002119224FF0404368468DF80A108DF8D8
:1040F800082001938DF80F40ADF80D508DF8014060
:1041080001F094FE042001F081FE05B030BD00BF2F
:104118000E00010300F0AABE014B00221A6070478E
:10412800D06C042400207047028BC08A101A704794
:10413800C28A0346018B914204D90069511C805CF4
:10414800D98270474FF0FF30704700BFC38A028B97
:104158009A4202D90269D05C70474FF0FF3070472D
:10416800836DD3F8DC2032B10021D3F8E02003F1CD
:10417800D40059841047704710B5002104460069DF
:10418800C4F8161010B1A28A0BF080F90021E0697A
:10419800618420B1228CBDE810400BF077B910BDC6
:1041A800F8B590F82430064614465BB1428C1519D0
:1041B800B5F5806F04D80F46018C8D420AD8FDB939
:1041C8000020F8BD92B2283000F0BEFC0028F7D1DC
:1041D8002046F8BD202DC06938BF202529460BF0A0
:1041E8001FF960B1728CF06135841044394622465B
:1041F8000BF090F9738C204623447384E9E7FEE7BB
:10420800C069F2E730B583B090F8243004468DF8E1
:104218000710A3B1438C591CB1F5806F0CDC008CDE
:10422800E269814216D89DF807100120D154638CA9
:104238000344638403B030BD002003B030BD0122C5
:104248000DF10701283000F07FFCB0FA80F040093A
:1042580003B030BD2029104638BF20210D460BF091
:10426800DFF8024618B1638CE0612584DBE7FEE7DE
:10427800F0B5846D83B0866ED4F8CC30D3B1E28AC1
:10428800238B9A4216D3A38A054620699E4213D8E7
:10429800324605F174010BF03DF90022D4F8CC3018
:1042A8002683E28201969BB1D4F8D03001A904F1AB
:1042B800C400984703B0F0BD202E374638BF2027EA
:1042C80039460BF0ADF810B12061A782E0E7FEE7B0
:1042D8000CF0FCFD70B500234FF47A750E46314999
:1042E8000446C0E901351546024642F8C41B194682
:1042F800C0F8C430C2E90133C0E93433C0E9363309
:10430800C0F8E0309C2228300BF0C0F8F3B2202B24
:1043180019D8254A06F4E06652F823301E43EBB25A
:10432800C4F88460202B1BD81F4A05F4E06552F8B6
:1043380023301D4300232046C4F88850E3612384BA
:104348002361A38270BD06F0C002C02A01D1CB2B25
:104358001BD9EBB24FF0FF36202BC4F88460E3D9A9
:1043680005F0C002C02A01D1CB2B02D94FF0FF358E
:10437800E0E705F03F010D4A0B4B05F4E06552F804
:10438800212053F822301D43D4E706F03F01074AA5
:10439800054B06F4E06652F8212053F822301E43FC
:1043A800BDE700BF501201080C180108DC1701080E
:1043B80038B5134B044640F8283B00F0B1FAE069E1
:1043C80018B10AF077FF0023E361002520692584EE
:1043D80010B10AF06FFF25610022D4F8DC30A28208
:1043E80023B104F1D401032208469847D4F8CC300D
:1043F80023B104F1C401032208469847204638BD7A
:104408005012010838B500F128050446284600F086
:1044180003FB94F8BE3003B138BD2846044900F0C8
:104428000BFC28460349BDE8384000F0FDBB00BF3F
:104438006941000879420008F8B590F8BE30012BB0
:1044480002D000242046F8BDD4B2838A05460E4621
:104458009C42026917D84FF42A43710005F12800DD
:104468002646AB6501F0FE01234600F08FFB20B91C
:1044780000232E83EB822046F8BD00260023344615
:104488002E83EB82F7E7202C2746104638BF2027DB
:1044980039460AF0C5FF024610B12861AF82DAE753
:1044A800FEE700BF01220023914080F824204384C6
:1044B8008176704701220023914080F824204384AC
:1044C8008176704738B5044641B9AA23836594F8C4
:1044D800BE30012B09D00425284638BD4FF42A43A5
:1044E800836594F8BE30012BF5D1638C04F1280064
:1044F800E269A17E00F0BEFA0546E069042D28BFF6
:104508000425EDB218B1228C00210AF0BFFF002368
:104518002846638484F8243038BD00BF38B590F845
:10452800BE304FF42A42012B826502D0042528466A
:1045380038BD0446438CC269283010F80E1C00F0C0
:1045480099FA0546E069042D28BF0425EDB218B193
:10455800228C00210AF09AFF00232846638484F8FD
:10456800243038BD2DE9F0410446D0F884000AF023
:10457800D5FA00210AF092FBD4F88430C3F3031271
:104588000A2A45D8254E03F00F03254D56F8222058
:1045980055F823301269934338D0D4F888000AF0CC
:1045A800BDFA01210AF07AFB1E4B1F4A1B68D4F89A
:1045B8008800A2FB032CC0F3031E00F00F014FEA92
:1045C8009C4CBEF10A0F0CEB8C0C4FEA4C0C22D819
:1045D80055F821101425154A0F0456F82E80C8F8EE
:1045E8001870546853681B1B9C45FBDCC8F81810EE
:1045F800546853681B1B9C45FBDC013DEDD10AF058
:104608008DFA2946BDE8F0410AF048BBBDE8F081C3
:1046180000231B69FFDE00239B61FFDEDC00002412
:10462800D81201083401002483DE1B43001000E087
:1046380038B50446002300690D46C4F8163018B191
:10464800A28A19460AF022FF0021E0696184A17656
:1046580010B1228C0AF01AFFD4F8DC30C4F880407C
:104668003BB104F1D4010322084698470023C4E96A
:10467800373300234FF40071012284F8BF5004F14E
:10468800280584F8C0302046A18484F8BE20FFF7AE
:1046980069FF94F825200949284600F023F894F882
:1046A800BE3003B138BD2846054900F0C5FA284692
:1046B8000449BDE8384000F0B7BA00BFA086010041
:1046C80069410008794200080B220C210148FFF7D4
:1046D80001BE00BFD46C04240148FFF769BE00BFC7
:1046E800D46C042498B12DE9F041044684B00E46F8
:1046F800C06D7949174609F0B5FB05467749206E24
:1047080009F0B0FB05B118B904B0BDE8F0817047F5
:104718000146284609F0D6FB20600028F4D0704BEB
:1047280004F10408984200F0B4806E4B984270D0AF
:104738006D4B984200F08C806C4B98421ED103F56B
:104748000A336B4A6B49C2F80C80D3F8F42042F064
:104758008002C3F8F420D3F8F42002F08002039218
:10476800039AD3F89C2042F08002C3F89C20D3F827
:104778009C2022F08002C3F89C2061665749206E75
:1047880009F05EFB5449E06D09F05AFB2368636049
:10479800594B9E427BD9594B9E4240F29980584BC7
:1047A8009E4240F297800022002594F8973002211B
:1047B800B4F964005B1B84F8455018BF0123DB047F
:1047C800236294F898305B1B18BF0123C4E90227C1
:1047D8005B040122636222612A46C4E9055501F09F
:1047E80095FAB4F9640001F0CDFA2A460221B4F929
:1047F800660001F08BFAB4F9660001F0C3FA40468E
:1048080003F010FA20B90223A06684F895307BE7FC
:10481800FEE73C4B364A3C49C2F80480D3F8E8200E
:1048280042F48002C3F8E820D3F8E82002F48002BA
:104838000192019AD3F8902042F48002C3F89020A4
:10484800D3F8902022F48002C3F89020616695E79F
:104858002C4B274A2D49C2F80880D3F8E82042F4A7
:104868000002C3F8E820D3F8E82002F4000202921C
:10487800029AD3F8902042F40002C3F89020D3F8AB
:10488800902022F40002C3F89020616676E7204A5F
:104898008AE71C4B1F48D3F8E820154942F4001258
:1048A800C3F8E820D3F8E82002F400120092009A36
:1048B800D3F8902042F40012C3F89020D3F8902047
:1048C80022F40012C3F890206066C1F8008055E712
:1048D800114A69E7114A67E7741101082C110108A8
:1048E8000054004000580040005C0040001C005884
:1048F800B86D04245F006000A0860100801A0600DD
:1049080040420F000044025821002200480049009C
:104918008A62E0301F0020003211D0201A0980106E
:1049280010B50446B0F9640001F03AFAB4F966002B
:1049380001F036FA201D03F0D1F90321206E09F0A9
:10494800C1F90321E06D09F0BDF92E4A23689342AD
:1049580044D02D4A934219D02C4A93422AD02C4A4B
:10496800934212D12B4BD3F89C2042F08002C3F81B
:104978009C20D3F89C2022F08002C3F89C20D3F816
:10498800F42022F08002C3F8F42010BD214BD3F8A4
:10499800902042F48002C3F89020D3F8902022F4AB
:1049A8008002C3F89020D3F8E82022F48002C3F8EC
:1049B800E82010BD174BD3F8902042F40002C3F84A
:1049C8009020D3F8902022F40002C3F89020D3F866
:1049D800E82022F40002C3F8E82010BD0D4BD3F8FC
:1049E800902042F40012C3F89020D3F8902022F4CB
:1049F8000012C3F89020D3F8E82022F40012C3F87C
:104A0800E82010BD0054004000580040005C004001
:104A1800001C005800440258104B994210B5044637
:104A280004D90F4B994211D80E4900E00E4962682B
:104A3800201D136823F001031360A16003F0F2F84E
:104A48006268136843F00103136010BD074B994275
:104A580001D80749EBE70021E9E700BFA08601007C
:104A6800801A06003211D0208A62E03040420F00DE
:104A78001A0980102DE9F0471E4682B004460F46F9
:104A8800904600F0EDF9EEB1D4F830908246043447
:104A980000253346424639462046CDF8009003F0BB
:104AA80021FA022804D0F8B1042002B0BDE8F0874A
:104AB80000F0D6F9A0EB0A05642DEAD9062002B069
:104AC800BDE8F087642301223946201D03F020F950
:104AD800022832D0032828D00028E6D094F84530A0
:104AE800202BE1D10220E0E700F0BAF9064609E000
:104AF800632D0CD800F0B4F905462046AD1B04F030
:104B080083F920B9204604F07BF92028F0D120460B
:104B180004F07AF9632D0CD882060AD4430711D41D
:104B2800003818BF01208000BFE794F84530202BDB
:104B3800D8D0052002B0BDE8F08794F84530202B86
:104B4800BCD1B2E70320B0E7202A1CD830B586468E
:104B58008AB101F1FF3CC1F101010CEB02059EF89D
:104B6800944001EB0C031CF8010F23446545734482
:104B780083F87400F3D19EF8943000201344DBB21C
:104B88008EF8943030BD0120704700BF2DE9F04702
:104B9800044682B0884617461E46043400F060F981
:104BA8000025D4F82C90824633463A4641462046A2
:104BB800CDF8009003F056FA022804D068B104201A
:104BC80002B0BDE8F08700F04BF9A0EB0A05642DB0
:104BD800EAD9062002B0BDE8F08700F041F90646A0
:104BE80009E0632D0CD800F03BF905462046AD1BC3
:104BF80004F00AF920B9204604F002F92028F0D17F
:104C0800204604F001F9632D08D8820606D443072C
:104C180008D4003818BF01208000D1E7052002B071
:104C2800BDE8F0870320CBE7034600B101B9704720
:104C38000430D96603F09CBB034600B101B9704744
:104C48000430196703F094BB70B590F891300446AE
:104C58000D46061F012B24D0012D13D10022E36E2F
:104C680084F891201BB1304684F89020984794F836
:104C7800902004F1700120464FF00073BDE87040A9
:104C880003F076BA0021012220464FF08073616656
:104C980084F89120616E74313144BDE8704003F0AE
:104CA800E7BA436E002BD7D0836E3046984702226E
:104CB800002384F891206366CEE700BF10B590F812
:104CC80091300446012B09D002220023204684F8A3
:104CD80091206366BDE8104003F04ABB436E002B89
:104CE800F2D0836E04389847EEE700BF436E1F2B5F
:104CF80002DC436E0133436690F89130012BDAB23F
:104D080000D07047416E4FF080737031014403F05A
:104D1800AFBA00BF002380F89030704790F8923007
:104D280003B1704703F024BB014B186803F038BB8C
:104D3800B86D0424014B186803F02ABEB86D04242A
:104D4800014B586803F02CBBB86D0424014B58681C
:104D580003F01EBEB86D0424014B986803F020BB15
:104D6800B86D0424014B986803F012BEB86D042492
:104D7800054B10B5DC68204603F012FB2046BDE861
:104D8800104003F005BE00BFB86D0424014BD8687D
:104D980003F0FEBDB86D0424704700BF0F4B1B78AD
:104DA8000BB90120704710B504464FF47A700C4ACD
:104DB800B0FBF3F31068B0FBF3F001F003F80F2C2D
:104DC80000D808B1012010BD002221464FF0FF3065
:104DD80000F09CFF034B00201C6010BDD000002495
:104DE80034010024D400002410B50320124C00F034
:104DF8007BFF04F095FB114B11499A699B69C2F33B
:104E0800032203F00F03A25CE35C02F01F020D4CC7
:104E180003F01F03D04020FA03F3206000200B604A
:104E2800FFF7BCFF10B10124204610BD0446FFF770
:104E3800B3FF204610BD00BF4013010800440258CC
:104E48003001002434010024034A044B11681B7804
:104E58000B441360704700BFC86D0424D0000024C1
:104E6800014B1868704700BFC86D042438B5044664
:104E7800FFF7F6FF0546631C02D0044B1B781C4461
:104E8800FFF7EEFF401BA042FAD338BDD000002444
:104E9800014B1868000C70470010005C3C4B02681E
:104EA8009A422DE9F0410546884664D003F580739F
:104EB8009A4260D0374C2F69A668082F06F01F0663
:104EC80013D040F22123F340DB070AD4A36813F47C
:104ED800404F09D06B6D012043F020036B65BDE89E
:104EE800F081D368DF07F5D40427FFF7B9FFB8F1DD
:104EF800FF3F04462A6816D013683B4216D1FFF7D5
:104F0800AFFF001B2A68404502D8B8F1000FF3D163
:104F180013683B40F0D16A6D032085F8503042F0A9
:104F280004026A6525E013681F42FCD06B6D43F4E8
:104F380000736B65D36813F4406F0FD16B7D6BB949
:104F480013681C070AD56B6D23F480736B656B6D52
:104F5800D80403D46B6D43F001036B650E4B9A4282
:104F68000BD0082FD36811D05B0401D40C23136035
:104F78000020BDE8F081094C9DE740F22123F34071
:104F8800D907EED4024B082FDB68EDD11760EFE7A5
:104F98000020024000630258002102400023024022
:104FA8000368186C704700BF70B5002282B0019288
:104FB80090F85020012A00F0E88001240268034696
:104FC80080F850409068450709D55A6D012042F095
:104FD80020025A65002283F8502002B070BD0D6887
:104FE800002D4FEA95600CDBC5F31306002E6AD03E
:104FF80095FAA5F515B1B5FA85F5AC40D5692C43F8
:10500800D4614C684FF01F0C02F1300E00F01F0005
:10501800A50904EA0C0405F00C050CFA04FCA040F0
:105028005EF8054024EA0C0C4CEA00004EF8050036
:10503800906810F0040F906801D1000745D590687A
:10504800C60701D50020C5E7CD680C6805F018062D
:10505800A548D2F8C010F040C4F31306204021EA56
:1050680006010143C2F8C010A0498D4200F08280B9
:10507800002CE7DA9E498A4200F08F8001F58071A2
:105088008A4200F08A809B489B4986688D68ED07B4
:105098009BD49A4D06F0E07CAC4200F04F81984DCD
:1050A800AC4200F01181974DAC42CBD17402C9D407
:1050B8008A42C7D1826822F0E07242EA0C0242F4C6
:1050C80080028260BEE7844098E70C6802F1140C05
:1050D8000726E50DC4F3045405F00405A6405CF862
:1050E800050020EA06008E68A64030434CF805000B
:1050F80085484D69006800F07040B0F1805FD06865
:1051080003D010F0100FD06842D1C0F382004000E5
:1051180085400E690868042E00F0838002F1600C57
:1051280000F0F8445CF8260000F0004020432843D3
:105138004CF826004C7E0D69A4F101045CF82500AA
:10514800B4FA84F420F00040640940EAC4704CF8D2
:105158002500087E0D69A0F10100146905F01F05FE
:10516800B0FA80F024F4F0444009C002A84020437B
:10517800106164E75E498A427BD064498A421AD04A
:10518800D16941F00101D16172E7022002B070BD1E
:10519800400800F008008540BBE75D49544A89682B
:1051A800926812F0010F594A92687FF40EAFD20745
:1051B8003FF50BAF46E757498C427FD056498C42A2
:1051C8007ED056498C4200F0DC8055498C4200F074
:1051D800DA8001F1866110318C4200F0D6805149A5
:1051E8008C4200F0D48001F1042101F540118C4279
:1051F80000F0CF8001F1866101F500618C4200F07A
:10520800CA8049498C42BBD1484991FAA1F1002989
:1052180058D0B1FA81F101208840D1690143D161A8
:1052280010E7156E840605F0F845B5EB806F03D1DD
:10523800106E20F000401066506E00F0F840844276
:1052480003D1506E20F000405066906E00F0F84098
:10525800844203D1906E20F000409066D06E00F03A
:10526800F84084427FF4EBAED06E20F00040D06668
:10527800E5E628498C4221D027498C4220D027498D
:105288008C427ED026498C427DD001F18661103156
:105298008C427AD023498C4279D001F1042101F55E
:1052A80040118C4275D001F1866101F500618C4294
:1052B80071D01F498C42A4D11E49A6E70121A4E759
:1052C8001D49A2E70120A8E7F5013FF5BBAE8A42D8
:1052D8007FF4B8AE826822F0E07242EA0C0242F033
:1052E80080728260AEE600BFFFFF0F000000FF473C
:1052F800002002400063025800600258000084CB7E
:10530800000052C70000B8CF0010005C0021024026
:105318000023024002003004040060080800900CDA
:105328001000C0100004002A0000844B0000B84F91
:1053380000002143000052474000201936023FF583
:1053480081AE8A427FF47EAE8268144922F0E07210
:1053580042EA0C0242F4000282600A68104992098B
:10536800A1FB02129209013252000192019A002A0D
:105378003FF468AE019A013A0192019A002AF9D1E4
:1053880060E6084941E708493FE708493DE7084919
:105398003BE7084939E7084937E700BF34010024EB
:1053A800632D3E058000501D000180210002B025BC
:1053B8000008302E0010603200209036406D704793
:1053C80003689A6812F0040F9A6870B5044601D110
:1053D80016073AD5DA68950104D5A08A40F2011279
:1053E800904241D002299A6831D0500702D59A6874
:1053F800920753D501294FD09A68100708D59A68A3
:10540800920705D49868294A024042F020029A601F
:10541800032941D10C25FFF723FD236806469B6825
:105428002B4212D0FFF71CFD801B23680528F6D9F4
:105438009A682A42F3D0636D012043F01003636534
:10544800A36D43F00103A36570BD002070BD16076E
:1054580008D59A68950705D49968144A0A4042F015
:1054680020029A600825D6E71A68500606D4104A22
:1054780001E0013ADFD019684906FAD540221A60DE
:105488009A68560708D59A68950705D49968074A0F
:105498000A4042F010029A600425BCE79868034A63
:1054A800024042F010029A60A4E700BFC0FFFF7FED
:1054B80000DC0C0003689A68D10701D5002070470A
:1054C8009968234A114270B5054609D06B6D0120D1
:1054D80043F010036B65AB6D43F00103AB6570BD22
:1054E80099681C4A0A4042F001029A60FFF7B8FC2A
:1054F8002B68194A0646934222D002F580729342DD
:105508001ED002F1C05202F5844292681A68D2078E
:1055180014D4104C9A68D00704D49A68224042F0F8
:1055280001029A60FFF79CFC821B2B68022A02D9B1
:105538001A68D107CAD51A68D207EBD5002070BD02
:10554800064A9268D406E1D0054A9342DED1F5E7CF
:105558003F000080C0FFFF7F002002400023024080
:1055680000210240384A0368934270B5044649D086
:1055780002F58072934245D0344A96689D6815F0CA
:10558800040545D194F85030012B41D00123204621
:1055980084F85030FFF78EFF00283BD1636D06F08A
:1055A8001F062B4A1A40236842F480726265294A12
:1055B800934232D01946626D22F480126265626DA0
:1055C80012F480523DD0A26D22F00602A2651C2280
:1055D8008B421A604FF0000284F8502021D040F22C
:1055E8002122F240D5071CD4636D43F48013636510
:1055F800CB689B0105D5636D23F4405343F4805376
:10560800636570BD144A96689D6815F00405B9D0A5
:10561800022070BD84F8505070BD0B49002ECED1C9
:10562800C9E7DA68920105D5626D22F4405242F466
:10563800805262659968094A0A4042F004029A60F9
:1056480070BDA265C3E700BF002002400063025896
:10565800FEF0FFFF0021024000230240C0FFFF7F51
:1056680038B503689A68950702D59B68002038BD4D
:105678009A68D407FAD59A68044602F00D02012AFE
:1056880009D0636D012043F010036365A36D43F0F7
:105698000103A36538BD986803210D4A024042F012
:1056A80002029A601960FFF7DBFB236805469B68D6
:1056B800D90703D4DAE79B68DB07D7D5FFF7D0FB18
:1056C800401B23680228F6D99A68D207F3D5D8E791
:1056D800C0FFFF7F38B5002800F0B080436D044656
:1056E800032143F002034365FFF76AFE236805467A
:1056F800DA6842F40012DA60002800F084805A6800
:1057080040F2FF716FF30A025A6019609A684F49B4
:1057180022F0A0429A609A6842F000529A60DA68D1
:1057280002F08022DA60DA6842F00042DA601A6930
:105738001140474A1961596901F040415961996915
:1057480001F078419961196A01F07C411962596A3E
:1057580001F07C415962D3F8B01001F07C41C3F8E4
:10576800B010D3F8B41001F07C41C3F8B410D3F8EA
:10577800B81001F07C41C3F8B810D3F8BC1001F0A0
:105788007C41C3F8BC10196B0A4032491A635A6B42
:105798000A405A639A6B0A402F499A63DA6B1140A0
:1057A8000022D963196E1A66596E5A66996E9A66FE
:1057B800D96EDA662949D3F8A0200A40C3F8A02098
:1057C800D3F8A4200A40C3F8A420D3F8C0200A4084
:1057D8002349C3F8C0208B42D3F8C42002F0F82232
:1057E800C3F8C42018D01F4A934215D01E4B9B689B
:1057F800DB0726D500232846A36584F85030636567
:10580800C4E9173338BD2046FFF72AFF0546D0B94B
:1058180001222368626572E7114B9B6813F0010F40
:10582800104B9B68E6D1DA07E4D4104A9168204609
:105838000F4B0B40936007F0E9FEDBE70125284694
:1058480038BD0C4AF2E7236859E700BF1CF800FC92
:10585800300882E0200882E020F8FFFF0000F0FF17
:10586800002002400021024000600258002302404C
:10587800E03000FE0063025890F85030012B1CD035
:105888000123032110B580F850300446FFF798FD36
:1058980020B10023012084F8503010BD2046FFF7C6
:1058A800DFFE0028F5D1626D054B134043F001037C
:1058B8006365002384F8503010BD0220704700BF94
:1058C800FEEEFFFF38B54F4A04460368934224D0E2
:1058D80002F58072934220D04B4B9B6813F4403FF3
:1058E80020D003F0D5FF63680546B3F5003F6CD0C0
:1058F800B3F5403F71D0B3F5803F66D0FFF7C8FAE3
:1059080041F20302236890422CD8404A954246D976
:105918009A6842F480729A6038BD3D4B9B6813F4D4
:10592800403FDED14FF40020002105F01DFA6368E6
:105938000546B3F5101F4CD024D8B3F5E01F4AD064
:105948004DD8B3F5801F08D054D8B3F5002F04D034
:1059580023F40022B2F5802FD0D19B0C5B00B5FB5D
:10596800F3F5CBE72B4A954223D92B4A954225D903
:105978002A4A95429A6839D822F4407242F4007251
:105988009A6038BDB3F5201F2ED0B3F5301FB5D1BE
:10599800FFF77EFA41F20303984205D823689A6814
:1059A80022F480729A6038BD1A4BB3EB152F236826
:1059B80004D39A6822F440729A6038BD9A6822F437
:1059C800407242F480729A6038BD1B0CB5FBF3F547
:1059D80094E7850992E7050990E785088EE7B3F50E
:1059E800001F8BD1450989E7C50987E742F4407252
:1059F8009A6038BDB3F5A01FAFD0B3F5C01FACD0C7
:105A08007CE700BF0020024000630258002D3101EE
:105A18000023024021BCBE0041787D0181F0FA02DA
:105A280070B5002382B00193002800F0B180456D65
:105A38000446002D00F0B08022689368980003D5D2
:105A48009168744B0B4093609368D90016D4724BDD
:105A580072491B6890689B09A1FB031370499B0955
:105A68000140013341F0805191600193019B2BB1BA
:105A7800019B013B0193019B002BF9D19368DB004B
:105A88007CD4636D012543F010036365A36D2B433C
:105A9800A365936813F0040F636D75D1DE0673D4A4
:105AA800636D23F4817343F0020363659368D80739
:105AB8000DD45C4B9A4200F0868003F580739A42BD
:105AC80000F08180584B9B68DA0740F18F80FFF720
